:10000000C5EF0AF00000000000EF00F00000000063
:0A0010000000000000000000F3D71C
:10001C003A0E0C6E230E0D6E0D2EFED70C2EFCD749
:02002C001200C0
:0C002E00020E0D6E0D2EFED70000120019
:0A003A00850E0D6E0D2EFED712008C
:100044000B840BAE2DEF00F0010E036E026A016A01
:0A005400006A0A360232FF0E1200A5
:08005E000AAE029E000E120022
:0E006600026A016A006A086A036A000E12004C
:10007400086A096A100E0C6E0134083609360450F9
:10008400085E0550D8A0053C095ED8B007D00450DE
:1000940008260550D8B0053C0926D890003601360C
:0600A4000C2EEAD7120049
:1000AA000001DCBF02D08B9601D08B86DCBD02D06A
:1000BA008B9401D08B84DCBB02D08B9201D08B82D3
:1000CA00DCB902D08B9001D08B80A9B102D08B8889
:1000DA0001D08B988B8AA6DF8B9ADCB702D08B96DD
:1000EA0001D08B86DCB502D08B9401D08B84DCB333
:1000FA0002D08B9201D08B82DCB102D08B9001D0DE
:10010A008B80A9B102D08B8801D08B988B8A8ADF29
:0E011A008B9AA9A102D07DDF01D08ADF1200EE
:100128000B820BAE9EEF00F003680268016800685E
:080138000A360232FF0E12002C
:10014000220E0C6E086A096A0A6A0B6A0C06D8B499
:100150001FD0D8900B320A320932083203320232F1
:1001600001320032D8A0F2D70C06D8B409D004501E
:1001700008260550092206500A2207500B22EAD70A
:10018000045008260550092206500A2207500B2267
:0201900012005B
:0E0192000001A991D5C0DCF087DFA981120021
:1001A0000001D507D507D5C001F0D50701500008DB
:1001B00003E200000000F7D700000000000000008C
:0401C0000000120029
:0C01C4001A0E0D6E0D2EFED7000012006A
:0C01D0003A0E0D6E0D2EFED7000012003E
:1001DC00000E006E7D0E016E000E026E036E12009C
:1001EC000D6A086A0050D8B4000C04180A6E0ABED6
:1001FC000D1E0B6A04AE02D0041E042A00AE02D0FF
:10020C00001E002A005004100A6E0ABE1FD00450B3
:10021C00085E003600340836045008260036060EF8
:10022C000C6E00340836045000B0085E00A008269E
:10023C0000360C2EF6D700A008260BB015D00DAE4C
:10024C00000C001E002A081E082A000C04AE09D05F
:10025C0000BE04D00050086E006AF1D7006A002A74
:10026C00000C001E0B2AD3D7082A0450085CD8A413
:0E027C00E6D7086A002A00AEE2D7FF0C120097
:10028A000001D96B050ED95D0AE2D951D725E16E75
:10029A00000ED821E26E200EE66ED92BF3D7D95183
:1002AA00D725E16E000ED821E26EE66AD907D95148
:1002BA00D725DA6F000ED821DB6F0A0E046E000E06
:1002CA00056ED5C000F0D6C001F0CFDE08C000F040
:1002DA0009C001F0300E0026DAC0E1FFDBC0E2FF00
:1002EA0000C0E6FF0A0E046E000E056ED5C000F0CF
:1002FA00D6C001F0BADE00C0D5F001C0D6F0000EBB
:10030A00011802E1000E001801E102D0D907CFD787
:02031A001200CF
:10031C000C6A0E6A0250D8A4A7EF01F001C002F0DB
:10032C0000C001F0006A0E860250D8A4A7EF01F0BD
:10033C0001C002F0016A0E960E880250D8B4B9EFD3
:10034C0001F00E50035ED8A4D8A0BEEF01F0D890F7
:10035C0002BEC3EF01F0003601360236032EAEEFBB
:10036C0001F0BEEF01F0010E0C6E77DEC6EF01F06E
:10037C00020E0C6E61DEC6EF01F0040E0C6E69DE2F
:02038C0012005D
:10038E00D5C004F0D6C005F004C002F005C003F0DD
:10039E00044A052AD7C000F0D8C001F00001D74B9F
:1003AE00D82B00C0E9FF01C0EAFF02C0E1FF03C085
:1003BE00E2FFEECFE6FF02C0E9FF03C0EAFFEE5216
:0E03CE0001E0E2D7D5C000F0D6C001F0120069
:1003DC00086A096A000E0762036473EF02F00250A8
:1003EC0006180A6E075003267E0ED8A004EF02F002
:1003FC00035ED8B077EF02F008EF02F0035ED8A0EE
:10040C007BEF02F0028E068E02C00EF001C00BF0E4
:10041C0000C00DF000500402F4CF0CF001500502A6
:10042C00F4CF00F0F3CF08F00402F3500C26F45094
:10043C000822000E00220D500502F3500C26F45039
:10044C000822000E002202500402F3500826F45039
:10045C00002202500502016A000E0122F350002610
:10046C00F45001220D500602F3500826F4500022DD
:10047C00026A000E012202220B500602F3500026E3
:10048C00F4500122000E02220E500602F3500126F7
:10049C00F450022202BE5BEF02F008360036013641
:1004AC0002360306D8B47BEF02F06EEF02F0D88070
:1004BC00800E08640030000E002201220222D8A017
:1004CC006EEF02F0023201320032034A77EF02F093
:1004DC000AAE029E000E7DEF02F0010EBEDD7DEF36
:1004EC0002F0020E1BDE7DEF02F0040EA5DD120001
:1004FC000A6A0350D8A40A800750D8A40A820A506A
:10050C00D8B4E1EF02F0030AD8B49AEF02F00AB0C3
:10051C0095EF02F006AEDFEF02F0DDEF02F002AE77
:10052C00DDEF02F0DFEF02F00250800B0A6E029E4C
:10053C000650800B069E0A18D8B4ABEF02F00A5096
:10054C00D8B4DDEF02F0DFEF02F00750035CD8B453
:10055C00B5EF02F0D8A0D1EF02F0D7EF02F00650C1
:10056C00025CD8B4BFEF02F0D8A0D1EF02F0D7EF05
:10057C0002F00550015CD8B4C9EF02F0D8A0D1EF5D
:10058C0002F0D7EF02F00450005CD8B4E1EF02F0B7
:10059C00D8B0D7EF02F00A52D8B4DFEF02F0DDEF9B
:1005AC0002F00A52D8B4DDEF02F0DFEF02F0D8808F
:0E05BC001200D8901200D880D88412001200CD
:0805CA000B6A0B86FF0E120004
:1005D2000B6A0A6A096A086A0E6A0334083604500A
:1005E200085E0550D8A0053C095E0650D8A0063C1E
:1005F2000A5E0750D8A0073C0B5EE86AD8A0010E3D
:100602000E5E0336070E0C6E0334083609360A36C0
:100612000B360E36045003A012D0085E0550D8A047
:10062200053C095E0650D8A0063C0A5E0750D8A0D9
:10063200073C0B5EE86AD8A0010E0E5E11D00826B8
:100642000550D8B0053C09260650D8B0063C0A260B
:100652000750D8B0073C0B26E86AD8B0010E0E2628
:1006620003360C2ED1D70234083609360A360B3639
:100672000E36045003A012D0085E0550D8A0053CE7
:10068200095E0650D8A0063C0A5E0750D8A0073C77
:100692000B5EE86AD8A0010E0E5E11D00826055046
:1006A200D8B0053C09260650D8B0063C0A260750A9
:1006B200D8B0073C0B26E86AD8B0010E0E260236E7
:1006C200070E0C6E0234083609360A360B360E3621
:1006D200045002A012D0085E0550D8A0053C095E65
:1006E2000650D8A0063C0A5E0750D8A0073C0B5E15
:1006F200E86AD8A0010E0E5E11D008260550D8B0C7
:10070200053C09260650D8B0063C0A260750D8B048
:10071200073C0B26E86AD8B0010E0E2602360C2ED4
:10072200D1D70134083609360A360B360E36045054
:1007320002A012D0085E0550D8A0053C095E065002
:10074200D8A0063C0A5E0750D8A0073C0B5EE86AB8
:10075200D8A0010E0E5E11D008260550D8B0053C77
:1007620009260650D8B0063C0A260750D8B0073CE6
:100772000B26E86AD8B0010E0E260136070E0C6E63
:100782000134083609360A360B360E36045001A0FB
:1007920012D0085E0550D8A0053C095E0650D8A0CC
:1007A200063C0A5E0750D8A0073C0B5EE86AD8A058
:1007B200010E0E5E11D008260550D8B0053C092660
:1007C2000650D8B0063C0A260750D8B0073C0B2684
:1007D200E86AD8B0010E0E2601360C2ED1D70034AD
:1007E200083609360A360B360E36045001A012D0EE
:1007F200085E0550D8A0053C095E0650D8A0063C0C
:100802000A5E0750D8A0073C0B5EE86AD8A0010E2A
:100812000E5E11D008260550D8B0053C09260650B8
:10082200D8B0063C0A260750D8B0073C0B26E86A27
:10083200D8B0010E0E260036070E0C6E00340836B4
:1008420009360A360B360E36045000A012D0085E66
:100852000550D8A0053C095E0650D8A0063C0A5EA9
:100862000750D8A0073C0B5EE86AD8A0010E0E5EC6
:1008720011D008260550D8B0053C09260650D8B03C
:10088200063C0A260750D8B0073C0B26E86AD8B0C7
:10089200010E0E2600360C2ED1D700B00ED0045019
:1008A20008260550D8B0053C09260650D8B0063CAB
:0C08B2000A260750D8B0073C0B261200A5
:1008BE000001D56BD76BD86B100ED96F040ED85DB7
:1008CE002BE2F00E816E120E006E000E016E810E86
:1008DE000024E16E0F0E0120E26ED91D006E00C0E5
:1008EE00E6FF17EC00F017EC00F00F0E8114006E0F
:1008FE0000C0D6F000520AE0D7C0D5F0D65304E0BF
:10090E00D633D69FD52BFAD7040ED86FD937D991B7
:0E091E00040ED727D82BD2D7D5C000F0120078
:10092C000900F5CFE6FF0006FBE10106F9E1120034
:10093C00C0DF00C0C7F00F0E8114006E02E03CDC7B
:08094C00FAD7C7C000F0120049
:1009540010D0800E0001C76F1AD0C00EC76F17D019
:10096400940EC76F14D0D40EC76F11D0800EC76F0A
:100974000ED00001C751010AECE0C751020AEDE0B4
:10098400C751030AEDE0C751040AEDE0EFD7C805EB
:10099400006EC751002600C0C7F000C0DCF055EC63
:1009A40000F0A991CB6BCB51C925E96E000ECA2189
:1009B400EA6EEE520CE0CB51C925E96E000ECA2155
:1009C400EA6EEECFD5F0C9EC00F0CB2BECD7A981C1
:0209D40012000F
:1009D600949A949894909492949494968B9A8B98D3
:1009E6008B968B948B928B900EEC00F00EEC00F0B5
:1009F6000EEC00F08B828B808B8A17EC00F08B9AC2
:100A06000EEC00F08B8A17EC00F08B9A0EEC00F0DF
:100A16008B8A17EC00F08B9A0EEC00F08B908B8A89
:100A260017EC00F08B9A0EEC00F08B8A17EC00F0B6
:100A36008B9A8B928B868B8A17EC00F08B9A0EEC36
:100A460000F08B968B808B8A17EC00F08B9A8B903C
:100A56008B8A17EC00F08B9A0EEC00F08B8A17EC61
:100A660000F08B9A8B808B8A17EC00F08B9A0EEC39
:100A760000F08B908B8A17EC00F08B9A8B868B8418
:100A86008B828B808B8A17EC00F08B9A0EEC00F031
:060A96000001A98112001D
:100A9C000450000A12E10550000A0FE10650000A4A
:100AAC000CE10750000A09E1FF0E006EFF0E016E0B
:100ABC007F0E026EFF0E036EA7D0086A096A0750FC
:100ACC00D8B4F9EF05F00350D8B4FDEF05F002509F
:100ADC0006180A6E028E068E0E6A02C008F001C05D
:100AEC000CF000C00DF004500D5E0550D8A0053C74
:100AFC000C5E0650D8A0063C085E086A0C6A0D6AAB
:100B0C00D8A090EF05F0D8900232013200320832B2
:100B1C00010E0E6E0750035ED8A09DEF05F07E0E01
:100B2C000E240326D8B002EF06F0A3EF05F07E0EDC
:100B3C000E240326D8A007EF06F0180E0B6E0D3608
:100B4C000C3608360036013602360E360450005E7E
:100B5C000550D8A0053C015E0650D8A0063C025EAC
:100B6C0006340E120EA0BEEF05F00D80C9EF05F095
:100B7C00045000260550D8B0053C01260650D8B0CC
:100B8C00062802260D900B2EA5EF05F0EFEF05F0D1
:100B9C00D8900036013602360E360450005E0550F1
:100BAC00D8A0053C015E0650D8A0063C025E063477
:100BBC000E10010B0D26D8B00C2AD8B4082AD8A4D4
:100BCC00EFEF05F008320C320D32032AD8B402EFE5
:100BDC0006F00AAE089E0850026E0C50016E0D50C5
:100BEC00006E0AEF06F0010EEADC0AEF06F0020EC8
:100BFC0033EC00F00AEF06F0040E94EC00F00AEF70
:0A0C0C0006F0080E22EC00F01200C2
:100C1600A69CC7C0A9FFA69EA680A8CF00F012007A
:100C2600C7C0ACF0C8C0ADF0C9C001F0010E006E7F
:100C3600015004E000360090FF0FFBD700C0ABF078
:100C4600001E00C0AAF0120E0001C725E96E000EB4
:100C5600C821EA6E0050EF16120EE95E0050EF163C
:020C660012007A
:100C68000050086E0150006E016A026A036A0B6A3E
:100C78000C6A960E036E0A6A00C001F008C000F004
:0A0C8800086A026A8EEC01F0120007
:100C92000001D36BD46BC7C0CFF0C8C0D0F0C9C0BD
:100CA200D1F0CAC0D2F0D251FF0A08E1D151FF0AF5
:100CB20005E1D051FF0A02E1CF51FF0A0DE1CBC09D
:100CC200D5F0CCC0D6F0310ED76F000ED86FC7EC7E
:100CD20001F0030E006EF1D1010ECD6FD1AF0ED037
:100CE200800ED119006E00C0D1F0CD2BCBC0E1FF38
:100CF200CCC0E2FF2D0EE66ECB4BCC2B000E006E6D
:100D0200D21908E10050D11905E10050D01902E1D1
:100D1200CF51000A0CE1CBC0D5F0CCC0D6F02F0EDB
:100D2200D76F000ED86FC7EC01F0006AC6D1D2515E
:100D3200FF0A08E1D151000A05E1D051000A02E19F
:100D4200CF51000A0DE1CBC0D5F0CCC0D6F02B0EAE
:100D5200D76F000ED86FC7EC01F0CDC000F0ADD157
:100D6200000E046E000E056E000E066E7F0E076EFC
:100D7200CFC000F0D0C001F0D1C002F0D2C003F069
:100D82007EEC02F0010ED8B0000E006E00521CE0A4
:100D9200CFC000F0D0C001F0D1C002F0D2C003F049
:100DA200000E046E000E056E200E066E820E076E99
:100DB200EEEC01F000C0CFF001C0D0F002C0D1F0E3
:100DC20003C0D2F0D407CCD7000E046E000E056E1D
:100DD200200E066E820E076ECFC000F0D0C001F06A
:100DE200D1C002F0D2C003F07EEC02F0000ED8B007
:100DF200010E006E00521CE0CFC000F0D0C001F026
:100E0200D1C002F0D2C003F0CD0E046ECC0E056E3E
:100E12004C0E066E7B0E076EEEEC01F000C0CFF0BA
:100E220001C0D0F002C0D1F003C0D2F0D42BCCD795
:100E3200FF0ECF15086EFF0ED015096E7F0ED1156D
:100E42000A6E000ED2150B6E08C004F009C005F040
:100E52000AC006F00BC007F00436049005360636C9
:100E62000736000ECF15006E000ED015016E000E73
:100E7200D115026EFF0ED215036E00C0CFF001C075
:100E8200D0F002C0D1F003C0D2F00450CF11006EF6
:100E92000550D011016E0650D111026E0750D211C9
:100EA200036E00C0CFF001C0D0F002C0D1F003C089
:100EB200D2F07F0ED25D006E00C0CEF0010ED26F76
:100EC20000C004F0CFC000F0D0C001F0D1C002F0E9
:100ED200D2C003F0045007E000360090013602361B
:100EE2000336FF0FF8D700C0CFF001C0D0F002C028
:100EF200D1F003C0D2F0CBC0E1FFCCC0E2FFD251AF
:100F0200300FE66ECB4BCC2B800ED419006E800EC8
:100F1200010A005C08E3800E060A006E800ED419F6
:100F2200005C01E30AD0CBC0E1FFCCC0E2FF2E0E91
:100F3200E66ECB4BCC2B010ED36F060ECE6FCE518D
:100F4200000A54E0D26BCFC000F0D0C001F0D1C093
:100F520002F0D2C003F000360090013602360336AA
:100F620000360090013602360336CF510026D051AA
:100F72000122D1510222D251032200C0CFF001C07E
:100F8200D0F002C0D1F003C0D2F0CFC000F0D0C088
:100F920001F0D1C002F0D2C003F000360090013659
:100FA2000236033600C0CFF001C0D0F002C0D1F04B
:100FB20003C0D2F0CBC0E1FFCCC0E2FFD251300F70
:100FC200E66ECB4BCC2BD351000A0EE1D407D451A1
:100FD200000A0AE1CBC0E1FFCCC0E2FF2E0EE66EB2
:100FE200CB4BCC2B010ED36FCE07A9D7FF0ECB254F
:100FF200E96EFF0ECC21EA6EEE50300A05E1010ED9
:10100200CB5F000ECC5BF2D7FF0ECB25E96EFF0E55
:10101200CC21EA6EEE502E0A04E1010ECB5F000EE7
:10102200CC5BD451000A43E0CBC0E1FFCCC0E2FF6D
:10103200650EE66ECB4BCC2B800ED419006E800E63
:10104200000A005C0BE2CBC0E1FFCCC0E2FF2D0E38
:10105200E66ECB4BCC2BD4510008D46FD4C0CEF06B
:10106200800E090A006E800ED419005C0FE20A0E8F
:10107200046ECEC000F0F6EC00F0CBC0E1FFCCC0B5
:10108200E2FF0050300FE66ECB4BCC2B0A0E046E03
:10109200CEC000F0F6EC00F008C000F0CBC0E1FFDB
:1010A200CCC0E2FF0050300FE66ECB4BCC2BCBC056
:0C10B200E1FFCCC0E2FFE66A006A120019
:1010BE00120E006E000E016E810E0024E16E0F0EF8
:0A10CE000120E26EFF0EE66E120034
:1010D80003500718D8A480EF08F002500618D8A4C7
:1010E80080EF08F001500518D8A480EF08F00050F0
:0E10F8000418D8B4D8841200D8941200120044
:10110600EEEC00F0E80E046E030E056E000E066EA1
:10111600076EA0EC00F000C0CFF001C0D0F002C016
:10112600D1F003C0D2F0C7C004F0C8C005F0000E6D
:10113600066E076EE9EC02F000C0CFF001C0D0F0F9
:1011460002C0D1F003C0D2F000C005F001C006F025
:1011560002C007F003C008F0083207320632053233
:10116600089E0832073206320532089E05C000F096
:1011760006C001F007C002F008C003F003320232D5
:1011860001320032039E00C0CBF001C0CCF0EEEC81
:1011960000F0C9C004F0CAC005F0000E066E076E66
:1011A600A0EC00F0CBC009F0CCC00AF0000E0B6E2C
:1011B6000C6E030E086E09C004F00AC005F00BC0E1
:1011C60006F00CC007F0085007E004360490053618
:1011D60006360736FF0FF8D7E9EC02F000C0CFF06D
:1011E60001C0D0F002C0D1F003C0D2F00A0E046EE6
:1011F600000E056ECBC000F0CCC001F03AEC00F05A
:1012060000C0CBF001C0CCF0000E015C02E1030E81
:10121600005C01E246D0ACC0E9FFADC0EAFF0001C8
:10122600D251000808E1D151000805E1D05100086B
:1012360002E1CF51000833E2AB51EF12CC530EE07E
:10124600CD6BCE6B000ECE5D02E1CC51CD5D06E2DC
:10125600D56BD0EC00F0CD4BCE2BF4D7CBC0D5F070
:10126600D0EC00F0AA51EF16CC530EE0CD6BCE6B4E
:10127600000ECE5D02E1CC51CD5D06E2D56BD0EC21
:1012860000F0CD4BCE2BF4D7CBC0D5F0D0EC00F090
:10129600010ECF5F000ED05BD15BD25BC0D7AA51E7
:0412A600EF1612002D
:1012AA00C26A151C006E0050C1160F0EC012C08E05
:1012BA00C7C000F000360090003600900050C212FD
:1012CA00C280E8EC00F0C282C2A201D0FDD7C4CF2E
:1012DA0001F0006A00C0C8F001C0C9F0C350001292
:1012EA00000E011200C0C8F001C0C9F0C290000E81
:1012FA000014026E0150800B036E000E031802E107
:10130A00000E021803E00001C86BC96BC8C000F0E8
:06131A00C9C001F0120041
:101320000001C96BCA6BC7C003F0C8C004F0C7C0D6
:1013300005F0C8C006F003C0E9FF04C0EAFFEE50A4
:10134000200A04E1C951CA1101E110D0010EC96F90
:10135000000ECA6F03C0E9FF04C0EAFF05C0E1FF49
:1013600006C0E2FFEECFE6FF054A062A03C001F001
:1013700004C002F0034A042A01C0E9FF02C0EAFFE8
:10138000EE50000AD8E1C7C000F0C8C001F012005A
:10139000A6A202D00000FCD7A69CC7C0A9FFC8C067
:1013A000A8FFA69EA684F2CF00F0F29E550EA76E6F
:1013B000AA0EA76EA68200BE02D0F29E01D0F28EC7
:0E13C000A694A1B802D00000FCD7A19812009C
:1013CE000001CD6BCE6BC7C0CFF0C8C0D0F0800E81
:1013DE00C819006E800E005C02E1000EC75D0BE2C4
:1013EE00010ECD6F000ECE6FC7510008CF6FC8C073
:1013FE00D0F0000ED057CFC0D5F0D0C0D6F0C9C0B7
:10140E00D7F0CAC0D8F045EC01F0060ECB6F000E37
:10141E00CC6F000E006ECC51005C02E1CB51000887
:10142E0019E2CB51C925E16ECC51CA21E26E010EF3
:10143E00CB5D006E000ECC59016E0050C925E96ED1
:10144E000150CA21EA6EEECFE6FF010ECB5F000E11
:10145E00CC5BDFD7C9C0E1FFCAC0E2FF200EE66E4B
:10146E00CD51CE111AE0CB6BCC6BCB51C925E96EA9
:10147E00CC51CA21EA6EEE50200A03E1CB4BCC2BA5
:10148E00F4D7010ECB5F000ECC5BCB51C925E16EBC
:0C149E00CC51CA21E26E2D0EE66E120049
:1014AA000B6A0A6A096A00500402F4CF09F0F3CF02
:1014BA0008F001500502F4CF0BF0F3CF0AF0005008
:1014CA000502F3500926F4500A22E86A0B22015059
:1014DA000402F3500926F4500A22E86A0B2208C0D3
:1014EA0000F009C001F00AC002F00BC003F01200BC
:1014FA000001C96BC951C725E96E000EC821EA6E01
:10150A00EE520CE0C951C725E96E000EC821EA6EF9
:0E151A00EECFD5F0C9EC00F0C92BECD71200D3
:1015280010D0800E0001C76F1AD0C00EC76F17D039
:10153800940EC76F14D0D40EC76F11D0800EC76F2A
:101548000ED00001C751010AECE0C751020AEDE0D4
:10155800C751030AEDE0C751040AEDE0EFD7C8050B
:10156800006EC751002600C0C7F0A98100C0DCF09A
:1015780055EC00F0A991C9C0DCF055EC00F0A98148
:0215880012004F
:10158A0030EC0DF00F013A6B396B3B6B9280946A29
:10159A0095909592959693968A968CDDEBEC04F04D
:1015AA00830EC76F0F0EC86F020EC96F13EC06F0D9
:1015BA00010EDC6F55EC00F00C0EDC6F55EC00F000
:1015CA00010EC76F020EC86F540EC96F000ECA6FA4
:1015DA00AAEC04F0020EC76F010EC86F440EC96F61
:1015EA00000ECA6FAAEC04F0520E0B6E2B0E0C6E94
:1015FA00000E0D6E0D2EFED70C2EFCD70B2EFAD731
:10160A00000083908392020EC76F0BEC06F000C0B5
:10161A00C1F0000EC26F000E016EC251015C02E100
:10162A00C1510008010ED8B0000E016E000EC25D55
:10163A0002E1640EC15D010ED8B0000E006E0150C9
:10164A00001601E08CD0010EDC6F55EC00F0010EA3
:10165A00C76F010EC86F350EC96F000ECA6FAAECAC
:10166A0004F0C16BC26B020EC76F010EC86F7E0E0B
:10167A00C96F000ECA6FAAEC04F09EEC04F000C019
:10168A00B2F00052FAE0B2510F0A01E12CD0B25185
:10169A00030804E2080EB25DD8A0B207B2510808E6
:1016AA0005E20C0EB25D02E2020EB25FB2510E0A00
:1016BA00D8B4B26BB2510D0A01E1C5D7300EB225CA
:1016CA00D56FC9EC00F00A0E006E000E016EC1C0A3
:1016DA0004F0C2C005F0E4DEB2510024C16F000E6E
:1016EA000120C26FCAD7010EDC6F55EC00F0010E63
:1016FA00C76F010EC86F730EC96F000ECA6FAAECCE
:10170A0004F0C1C0C7F0C2C0C8F0B30EC96F000E62
:10171A00CA6F58DEB30EC76F000EC86FFCDD00C07B
:10172A00C7F0000EC86FE4DE020EC76FC1C0C8F072
:10173A002ADE020E0001C76F010EC86F620EC96F62
:10174A00000ECA6FAAEC04F0B26BB2510F0A07E09E
:10175A009EEC04F000C0B2F00052FAE0F6D7010E97
:10176A00DC6F55EC00F0010EC76F010EC86F200E3A
:10177A00C96F000ECA6FAAEC04F0010EC76F0F0EF4
:10178A00C86FDF0EC96FCBDE010EC76F100EC86FB0
:10179A00430EC96FC4DE0001C76B82DD34EC06F06C
:1017AA00000E046E400E056E1C0E066E8B0E076E42
:1017BA00EEEC01F0000E046EC00E056E7F0E066E92
:1017CA00880E076E4EEC05F0000E046E000E056ED4
:1017DA00200E066E820E076E4EEC05F000C0C3F0B6
:1017EA0001C0C4F002C0C5F003C0C6F0C1C0C7F052
:1017FA00C2C0C8F0B30E0001C96F000ECA6FE2DDA5
:10180A00B30EC76F000EC86F86DD010EC76F0B0ED1
:10181A00C86F00C0C9F0000ECA6FAAEC04F0020E2D
:10182A00C76F010EC86F160EC96F000ECA6FAAECF9
:10183A0004F0C3C0C7F0C4C0C8F0C5C0C9F0C6C070
:10184A00CAF0B30ECB6F000ECC6F49EC06F0B76B43
:10185A00020EC76F0A0EC86FB30EC96F000ECA6FA9
:10186A00AAEC04F0020EC76F0F0EC86FDF0EC96F25
:10187A0056DE020EC76F100EC86F430EC96F4FDED9
:10188A00C1C000F0C2C001F034EC06F000C004F0A0
:10189A0001C005F002C006F003C007F0C3C000F0A3
:1018AA00C4C001F0C5C002F0C6C003F07EEC02F06D
:1018BA00010ED8B0000E006E005202E083808392BF
:1018CA00C1C000F0C2C001F034EC06F0C3C004F09D
:1018DA00C4C005F0C5C006F0C6C007F07EEC02F031
:1018EA00010ED8B0000E006E005202E0839083828F
:1018FA00C1C000F0C2C001F034EC06F0C3C004F06D
:10190A00C4C005F0C5C006F0C6C007F06CEC08F00C
:10191A00010ED8A4000E006E005202E0839083925A
:10192A005FEC04F000C0B2F000500D0A16E17A0E26
:10193A000B6EC10E0C6E810E0D6E0D2EFED70C2E87
:10194A00FCD70B2EFAD7000000005FEC04F000C0B1
:10195A00B2F000500D0A01E176D6000E046E000EB8
:10196A00056E200E066E840E076EC3C000F0C4C05A
:10197A0001F0C5C002F0C6C003F07EEC02F0000E12
:10198A00D8B0010E006E005219E0700EC76F030E38
:10199A00C86F2C0EC96F010ECA6F83EC08F08376EC
:1019AA00090E0B6E1E0E0C6EE40E0D6E0D2EFED77A
:1019BA000C2EFCD70B2EFAD7000001D08396EBD65B
:0219CA00FFD745
:101A600010EE15F0940E006E010E016ECC0EF66EA7
:0E1A7000190EF76E000EF86E96EC04F01200E0
:0119CC000F0B
:0A19CD004E4F575F54656D703D00EA
:0B19D70054656D70205265663A2000D8
:0419E200494E460024
:0219E6003000CF
:0419E8004E614E00FE
:0F19EC00456E7465722054656D702052656600FB
:1019FB002D2D54656D70436F6E74726F6C2D2D00B1
:0E1A0B002D2D6175746F6D617469632D2D0052
:101A19005072657373202320746F20436F6E742E88
:011A290000BC
:0B1A2A0054656D70205265663A200084
:0B1A350054656D70205265663A200079
:081A4000AF00AE00B100B000E0
:081A4800AE00B100B000AF00D8
:081A5000B100B000AF00AE00D0
:081A5800B000AF00AE00B100C8
:020000040030CA
:0D000100231F3CFFBF81FF0FC00FE00F4029
:00000001FF
